:040000008231AF2A70
:100008007E14803120007F08A7000B1DAB2A0B113E
:100018005818B528FD107D1C1328FD147D102000EC
:100028000E1A7D14FD117D19FD157D1120008E1A03
:100038007D157D18FD1823287D1D342839287D1C41
:10004800FD1C29287D19342839287D19FD192F28E8
:100058007D1C392834287D1DFD1D3E287D18392832
:1000680001302000CB0700303D28FF302000CB07AF
:10007800FF30CC3D2000CC1F4328CB01CC014C08DD
:10008800803AA00080302002031D4C2880304B02AB
:10009800031C53287F302000CB000030CC00200008
:1000A800B401083034020318BC283408A000A101A8
:1000B800A035A10D4030200784008330213D850004
:1000C800003FA200013FA3004C082302031D6E2835
:1000D8004B082202031CB02834085A3E840083309F
:1000E8000318013E85000008A0004B08F0004C08EA
:1000F800F100890D893B8909F200F3003408A10059
:10010800A201A135A20DA135A20D0030210784005E
:100118008330223D8500003FF400013FF500023F97
:10012800F600033FF7008A316B2280317008200007
:10013800A3007108A4007208A5007308A600103077
:10014800A636A50CA40CA30C890BA4282308200709
:10015800B500B601B60DBC280130A0002008B407D0
:1001680055285508A000A1012008B5002108B600AF
:1001780001303602013003193502031CC72800304C
:10018800B5000130B6000130CD070030CE3D4E0835
:10019800803AA00082302002031DD42801304D028D
:1001A800031CD9282000CD01CE0120003608A1006B
:1001B8003508A000A035A10D21084E02031DE62830
:1001C80020084D020318EA280D12EB280D165008D6
:1001D8004F04031DF328520851040319F528B501EB
:1001E800B60133083602031DFB2832083502031C0A
:1001F8001E293208143EA0000030333DA10021081A
:100208003602031D092920083502031C1029143061
:10021800B2070030B33D24293208143EA000003054
:10022800333DA10021083602031D1C292008350290
:10023800031824293608B301B3073508B201B207F9
:100248003209A0003309A100A00A0319A10A200855
:10025800003EAE000130213DAF002F08A1002E085E
:10026800A000A136A00CA136A00C200825009800FB
:1002780020002E080339A0000430A035890B41293D
:1002880025001A08CF392000200425009A000330E1
:1002980021009D009D184E2903309D009D1852296C
:1002A8001B082000A0000630A036890B582920081A
:1002B800A100A20121001C082000A300A401A3356D
:1002C800A40DA335A40D21082307A5002208243D69
:1002D800A6002508B0002608B1003008C307310879
:1002E800C43D0030C53DC63D073021009D009D1826
:1002F8007B2907309D009D187F291B082000A0003E
:100308000630A036890B85292008A100A20121000A
:100318001C082000A300A401A335A40DA335A40D37
:1003280021082307A5002208243DA6002508B000BF
:100338002608B1003008C7073108C83D0030C93D5C
:10034800CA3D0130A0002008D707D708031D002A9E
:100358004308A0004408A1004508A2004608A300DD
:100368000830A336A20CA10CA00C890BB5290030CB
:100378002302031DC92900302202031DC9290130A7
:100388002102031DC929AF3020020318CD297C168C
:10039800CE297C124708A0004808A1004908A200FD
:1003A8004A08A3000830A336A20CA10CA00C890BA4
:1003B800D72900302302031DEB2900302202031D38
:1003C800EB2901302102031DEB29AF30200203186D
:1003D800EF29FC16F029FC120030CA000030C900D1
:1003E8000030C8000030C7004A08C6004908C500E8
:1003F8004808C4004708C3008C1D072A0030CF00F6
:100408000230D0000F2A50084F0403190F2A013078
:10041800CF020030D03B0C1E162A0030D10002302B
:10042800D2001E2A5208510403191E2A0130D10293
:100438000030D23B003054026430031953020318D1
:100448002A2A0130D3070030D43D2C2AD301D40105
:100458007C1A312A20008D14332A20008D10FC1AB2
:10046800382A20008D153A2A20008D1150084F0493
:10047800031D412A20000D14432A20000D105208A4
:100488005104031D4A2A20000D154C2A20000D1185
:10049800581C7C2A8D12A801A80AFC1D5C2AFC1D88
:1004A8005B2A003054021430031953020318A801C0
:1004B8002808031D0E1503190E11A90150084F0431
:1004C80003197C1A6B2A7C1C6B2AA901A90A290822
:1004D800031D0E1403190E10AA0152085104031922
:1004E800FC1A7A2AFC1C7A2AAA01AA0A2A08A72A2C
:1004F8008D16AB01AB0A0C1B8A2A0C1B892A00300B
:1005080054021430031953020318AB012B08031DBE
:100518000E1503190E11AC0150084F0403197C1A6B
:10052800972AAC01AC0A2C08031D0E1403190E10EF
:10053800AD01520851040319FC1AA62A8C1AA62ADE
:10054800AD01AD0A2D08031D8E1503198E1127085C
:10055800FF007E1009008231B12AFC01D801433026
:1005680084000030850015308931A4217E102000D8
:100578008631092E210033082000B7000030B8006A
:100588008A3121228231200038083704031DD22AFB
:10059800FF302100B300FF30B40008002100330809
:1005A8008E314A26823120003E082100B701B70764
:1005B80020003D082100B601B607B71BEE2A370810
:1005C800803AB50080303502031DEC2A023036022D
:1005D800031CF42AFE302100B300FF30B4000800E9
:1005E80021003618FA2A20008C17FC2A20008C13C8
:1005F8002100B301B4010800D834AD340534003407
:1006080034345A34023400341634CE3401340034CD
:100618008E34853401340034353457340134003491
:10062800483436340134003455341D340134003430
:100638001F340A340134003472348434E9340B34FE
:1006480083348434E1340C346034843427340C34F7
:100658006634843465340C346C348434A3340C34F8
:1006680087348434CF340D3441348434BE34023476
:100678003A3484348D340434103400342034003453
:1006880030340034403400345034003460340034A2
:10069800703400347F340034013400340A340034B8
:1006A80064340034E83403341034273400343534E7
:1006B8004734543460346A3474347C3445345234A6
:1006C80052343434203463346F346D346D346134CF
:1006D8006E34643420346C3469346E3465342034B8
:1006E80062347534663466346534723420346F3459
:1006F80076346534723466346C346F3477340D3440
:100708000A3400340D3453344134573420344E34D1
:100718006534623475346C3469347A3465347234CF
:1007280020345234463420344434723469347634B4
:100738006534723420342D34203431342E3430343E
:100748000D340A34003445345234523433342034AE
:100758006234613464342034703461347234613406
:100768006D346534743465347234203476346134CD
:100778006C34753465340D340A34003445345234DD
:1007880052343234203470346134723461346D340C
:10079800653474346534723420346D346934733498
:1007A800733469346E3467340D340A340034453494
:1007B8005234523431342034623461346434203455
:1007C80063346F346D346D3461346E346434203482
:1007D80076346534723462340D340A340034463465
:1007E8004C3431343D3425346434203400344534B9
:1007F8004E3431343D3425346434203400344F349D
:10080800543431343D34253464342034003446348F
:100818004C3432343D342534643420340034453487
:100828004E3432343D34253464342034003450346A
:1008380055344C343D342534643420340034523437
:1008480045344D343D342534643420340034503438
:10085800573452343D3425346434203400344F3412
:10086800543432343D3425346434003473347434AD
:1008780061347434753473340034743474346C34BF
:100888006F3475347434003445345234523431344E
:100898000D34003445345234523432340D3400347B
:1008A80045345234523433340D34003445345234E0
:1008B800523434340D34003465346E346134623467
:1008C8003134003465346E34613462343234003487
:1008D800703475346C34733465340034653463347F
:1008E80068346F34003408342034083400344F340A
:1008F8004B340D3400344F344B34203400347234CC
:1009080065346D34003470347734723400347E3496
:1009180000347F302000BD008430BE008B31372387
:10092800843123302100A2008430A300031020006A
:10093800581803140030093D2100B500B6013508E8
:10094800A4003608A500BA30873120278431BA3090
:100958002000BD000030BE008B3137238431FB30CE
:100968002100A2008330A30003107C180314003078
:10097800093DB500B6013508A4003608A500BA300F
:10098800873120278431BA302000BD000030BE00F6
:100998008B313723843113302100A2008430A30027
:1009A8000310FC1803140030093DB500B6013508E2
:1009B800A4003608A500BA30873120278431BA3020
:1009C8002000BD000030BE008B31372384311B303E
:1009D8002100A2008430A3000310FC190314003086
:1009E800093DB500B6013508A4003608A500BA309F
:1009F800873120278431BA302000BD000030BE0086
:100A08008B3137238431200055082100B500B60109
:100A1800B701B80138082000BA00210037082000C3
:100A2800B900210036082000B80021003508200050
:100A3800B7000030BE000030BD006430BC00643038
:100A4800BB008A319A228431003020003707210008
:100A5800C40080302000383D2100C500003020004F
:100A6800393D2100C600003020003A3D2100C70072
:100A78004408B5004508B6004608B7004708B8005E
:100A88001030B900B837B70CB60CB50CB90B462DF9
:100A98003808C7003708C6003608C5003508C4003E
:100AA8002B30A2008430A3004508A501A5074408FF
:100AB800A401A407BA30873120278431BA30200036
:100AC800BD000030BE008B3137238431F330210064
:100AD800A2008330A300031020000D180314003077
:100AE800093D2100B500B601B509B6090130350543
:100AF800A40000303605A500BA308731202784319C
:100B0800BA302000BD000030BE008B31372384315D
:100B18000B302100A2008430A300031020000D191F
:100B280003140030093D2100B500B601B509B60926
:100B380001303505A40000303605A500BA308731EC
:100B480020278431BA302000BD000030BE008B3130
:100B58003723843103302100A2008430A30003101E
:100B680020008D1803140030093D2100B500B6019E
:100B7800B509B60901303505A40000303605A500D1
:100B8800BA30873120278431BA302000BD000030C8
:100B9800BE008B313723843133302100A2008430EA
:100BA800A300031020008D1903140030093D210013
:100BB800B500B601B509B60901303505A400003005
:100BC8003605A500BA30873120278431BA30200095
:100BD800BD000030BE008B31372384314C302000FB
:100BE800BD008430BE008B31372384317C1D032E39
:100BF800A5302000BD008330BE008B313723FD3087
:100C08002100B300FF30B40008008D312225863161
:100C180000302100DE000030DD000030DC00003054
:100C2800DB005E08803ACC000030803A4C02031D9D
:100C3800272E00305D02031D272E27305C02031D7E
:100C4800272E10305B020318772E5E082000BA00AA
:100C580021005D082000B90021005C082000B800D0
:100C680021005B082000B70021005E082000BE00BC
:100C780021005D082000BD0021005C082000BC00A8
:100C880021005B082000BB008A319A2286312000AF
:100C98003A082100D000200039082100CF002000A8
:100CA80038082100CE00200037082100CD0001308F
:100CB800DB070030DC3D0030DD3D0030DE3D5E0806
:100CC800803ACC000030803A4C02031D752E00306B
:100CD8005D02031D752E27305C02031D752E103032
:100CE8005B02031C292E86302000BD008330AD2E08
:100CF8007C19832E5A302000BD008430AD2E62301E
:100D08002000BD008330AD2E7B30132F7C19912E2F
:100D180048302000BD008430AD2EDB302000BD00FF
:100D28008330AD2E7C199D2E4E302000BD008430BE
:100D3800AD2EC2302000BD008330AD2E7C19A92E07
:100D480054302000BD008430AD2EA7302000BD00F7
:100D58008330BE008B31372386310A302100A4004E
:100D68000030A500D1308E31CD26863121002508EE
:100D7800E001E0072408DF01DF0760085F04031DC6
:100D88007C2ED1302000B7000030B8008A312122F3
:100D980086312000380837040319882EE1302100F5
:100DA800CC004C08A800D1308F315F278631210054
:100DB8002908E001E0072808DF01DF0760085F0471
:100DC800031D8A2EE1302100CC004C08B3006C08CA
:100DD8008A006B080A00863121003408E001E00728
:100DE8003308DF01DF07FF306006031DFD2EFF30EB
:100DF8005F060319962EFF3021006006031D062F9B
:100E0800FE305F060319A22EFF3021006006031D85
:100E18000F2FFD305F060319B12E7B302000BD0077
:100E28008430BE008B31372386317C1DB12EA5302E
:100E38002000BD008330AD2E2100B100A430A600F3
:100E48002608AA002308A7002208A600A20A031958
:100E5800A30A26088400270885000008A800280897
:100E6800B200B2080319F62F3208253A0319482FA1
:100E78003208A60031088600870126088100013063
:100E8800A6002608B107262FAB012308A7002208D1
:100E9800A600A20A0319A30A2608840027088500C9
:100EA8000008B200003A0319F62F643A0319602FBC
:100EB8000D3A0319602F262F2A0886008701403F24
:100EC800AD00413FAE000230A6002608AA07AE1FBB
:100ED800762F0330A6002608AB04AD09AE09AD0A8B
:100EE8000319AE0AB201B20A3208053A03199B2F58
:100EF8003208A600A701A635A70D503026078400A2
:100F08008330273D8500003FA800013FA90029083C
:100F18002E02031D912F28082D02031C9B2F013040
:100F2800A6002608B2073208053A031D7C2F2B08B5
:100F380003390319AA2F2D30A6003108860087012E
:100F4800260881000130A6002608B1073208A6004D
:100F58002608AC00FF30A6002608AC072C08FF3A8C
:100F68000319262F0A302000BF000030C0002100DE
:100F78002C08A600A701A635A70D50302607840027
:100F88008330273D8500003F2000B700013FB800AF
:100F980021002E082000BA01BA0721002D082000E0
:100FA800B901B9078B310023873120003808C20105
:100FB800C2073708C101C1078A31CA228731200018
:100FC8003F08303E2100A8002808B2003208A600D9
:100FD800310886008701260881000130A60026080E
:0E0FE800B107AE2F3108860087018101080095
:10133C002000911E9E2923001908080064008001DA
:10134C000131890BA52900342000B700111EAC29EE
:10135C00370823009A0008002000B7005B303702E2
:10136C000318BD2941303702031CBD29B7163708B5
:10137C0008002000B800B7013A3038020318CC2915
:10138C0030303802031CCC29B701B70A370C0800DF
:10139C002000BA003A08B8003808B90039088600AD
:1013AC0087013708840085010008C03F89080319AC
:1013BC0008000130B8003808B9070130B800380807
:1013CC00B707D429200037088400380885000008A6
:1013DC003906031908003808BC003708BB00B70AE7
:1013EC000319B80A3B0884003C0885000008003843
:1013FC00031DE829B701B80108002000BB01BC019E
:10140C00371C0C2A3908BB073A08BC3D0130B935EA
:10141C00BA0D890B0D2A0130B836B70C890B122A7C
:10142C0038083704031D062A3C08B801B8073B08E6
:10143C00B701B707080020003808BC01BC07370803
:10144C00BB01BB073B0884003C0885000008003842
:10145C000319352A0130BB070030BC3D282A370957
:10146C00B9003809BA00B90A0319BA0A3B08390796
:10147C00B7003C083A3DB80008002000BB004E2ADB
:10148C000130B9003908BB070130B7070030B83D4F
:10149C003B0886008701370884003808850000085F
:1014AC00FF3A013E0107B9003908BA00BA08031D1A
:1014BC00652A3B08860087018108031D462A3A08E5
:1014CC00B700B801B71BB80308000030FB000030B0
:1014DC00FA000030F9000030F800701C7D2A740806
:1014EC00F8077508F93D7608FA3D7708FB3D0130A1
:1014FC00F435F50DF60DF70D890B7E2A0130F33618
:10150C00F20CF10CF00C890B852A7308720471042F
:10151C007004031D732A7B08F3007A08F200790823
:10152C00F1007808F000080000302000C200003004
:10153C00C1000030C0000030BF00371CAD2A3B0892
:10154C00BF073C08C03D3D08C13D3E08C23D0130CF
:10155C00BB35BC0DBD0DBE0D890BAE2A0130BA36A4
:10156C00B90CB80CB70C890BB52A3A0839043804F5
:10157C003704031DA32A4208BA004108B9004008E9
:10158C00B8003F08B7000800200040083F040319CA
:10159C00F82A2100A101A10A2000C01BE12A013078
:1015AC002000BF35C00D890BD72A01302100A000C7
:1015BC002008A107D22A200040084202031DE82A75
:1015CC003F084102031CEE2A3F08C1024008C23BFF
:1015DC000130C036BF0C890BEF2A01302100A1026B
:1015EC00031DE12A20004208C001C0074108BF01C9
:1015FC00BF0708002000BD01BE01380837040319DD
:10160C00302BBC01BC0AB81B152B0130B735B80DFB
:10161C00890B0C2B0130BB003B08BC07092B01309C
:10162C00BD35BE0D890B162B38083A02031D202B35
:10163C0037083902031C272B3708B9023808BA3B84
:10164C003D140130B836B70C890B282B0130BC0285
:10165C00031D152B3E08B801B8073D08B701B707A5
:10166C00080020003E08B801B8073D08B701B707CD
:10167C008A3121228B31200038082100A101A107D9
:10168C00200037082100A001A007A201A301230814
:10169C00803A2000BF0021002108803A20003F0240
:1016AC00031D5B2B210020082202031808002000D8
:1016BC003D0821002207840020003E082100233D24
:1016CC00850000088931AA218B3101302100A20745
:1016DC000030A33D4D2B2100A200A001A101802BC5
:1016EC0001302000BF003F082100A2070130A007F5
:1016FC000030A13D2208860087010108003A031939
:10170C00A22B20003E08B801B8073D08B701B70767
:10171C00210022088600870101082000BF00C001BB
:10172C003F08B9004008BA008931E8218B3120000C
:10173C00380837040319762B210021082000BE013C
:10174C00BE07210020082000BD01BD0708002100B4
:10175C00A200A001A101BC2B01302000BF003F085A
:10176C002100A2070130A0070030A13D220886000D
:10177C0087010108003A0319DE2B20003E08B8014E
:10178C00B8073D08B701B70721002208860087017A
:10179C0001082000BF00C0013F08B9004008BA0092
:1017AC008931E8218B31200038083704031DB22B16
:1017BC00210021082000BE01BE07210020082000C6
:1017CC00BD01BD070800210033082000B700003020
:1017DC00B8008A3121228B31200038083704031DD0
:1017EC00FD2BFF302100B300FF30B40008002100B6
:1017FC0033088E314A268B3120003E082100B70178
:10180C00B70720003D082100B601B607B71B192CFD
:10181C003708803AB50080303502031D172C023092
:10182C003602031C1F2CFE302100B300FF30B40025
:10183C0008007C11210036187C152100B301B4017D
:10184C000800210033082000B7000030B8008A31AE
:10185C0021228C31200038083704031D3B2CFF302B
:10186C002100B300FF30B4000800210033088E3192
:10187C004A268C3120003E082100B701B707200012
:10188C003D082100B601B607B71B572C3708803A24
:10189C00B50080303502031D552C02303602031C76
:1018AC005D2CFE302100B300FF30B40008007C102A
:1018BC00210036187C142100B301B401080021006A
:1018CC0033082000B7000030B8008A3121228C3157
:1018DC00200038083704031D792CFF302100B30099
:1018EC00FF30B4000800210033088E314A268C31B9
:1018FC0020003E082100B701B70720003D08210059
:10190C00B601B607B71B952C3708803AB500803066
:10191C003502031D932C02303602031C9B2CFE3027
:10192C002100B300FF30B4000800FC102100361871
:10193C00FC142100B301B40108002100330820007D
:10194C00B7000030B8008A3121228C3120003808D1
:10195C003704031DB72CFF302100B300FF30B40057
:10196C000800210033088E314A268C3120003E08B5
:10197C002100B701B70720003D082100B601B607CA
:10198C00B71BD32C3708803AB50080303502031DC5
:10199C00D12C02303602031CD92CFE302100B300AE
:1019AC00FF30B4000800FC1121003618FC15210092
:1019BC00B301B4010800210033082000B700003047
:1019CC00B8008A3121228C31200038083704031DDD
:1019DC00F52CFF302100B300FF30B40008002100CB
:1019EC0033088E314A268C3120003E082100B70185
:1019FC00B70720003D082100B601B607B71B112D13
:101A0C003708803AB50080303502031D0F2D0230A7
:101A1C003602031C172DFE302100B300FF30B4003A
:101A2C000800200058102100361C1E2D20005814D0
:101A3C002100B301B4010800F030210099007B3083
:101A4C008C00C0308D00F0308E00033023008C00F1
:101A5C008D0120000E110E108E118E100D148D1490
:101A6C000D158D150D168D168C17603021009E00EE
:101A7C0001309D00043095000C3025009A009E0129
:101A8C003F3020009B0004309C002500980123006F
:101A9C009F151E1540309B0003309C001E129D1795
:101AAC001D169E167D1020000E1A7D14FD107D183B
:101ABC00FD147D1120008E1A7D15FD117D19FD156B
:101ACC002000CB01CC01CD01CE018B168B17080069
:101ADC002000C100C108031D792D56082100A50066
:101AEC0025082000C100C108031D7E2D0030080010
:101AFC00210024082000BE01BE072100230820007D
:101B0C00BD01BD0741088B31AD238D3120003D084F
:101B1C002100A50025082000C10741088600870187
:101B2C008108031D9C2D0030D600080021002408DC
:101B3C002000BE01BE07210023082000BD01BD0707
:101B4C0041088B3171238D3120003D082100A50007
:101B5C0020003E082100A600200041082100250796
:101B6C00A70027082000D600560886008701010828
:101B7C00003A0319CC2D56088600870181010130EB
:101B8C002100A50025082000D607CD2DD60141083F
:101B9C000800210033082000B7000030B8008A315B
:101BAC0021228D31200038083704031DE32DFF302E
:101BBC002100B300FF30B4000800210033088E313F
:101BCC004A268D3120003E082100C001C0072000AC
:101BDC003D082100BF01BF07C01BFF2D4008803A04
:101BEC00B50080303502031DFD2D65303F02031C0E
:101BFC00052EFE302100B300FF30B4000800210098
:101C0C003F082000B700210040082000B800890DD3
:101C1C00893B8909B900BA000030BE000230BD0012
:101C2C008C30BC00CC30BB008A319A228D31003014
:101C3C00200037072100BB0080302000383D2100F8
:101C4C00BC0000302000393D2100BD0000302000D8
:101C5C003A3D2100BE003B08B5003C08B6003D08EB
:101C6C00B7003E08B8001030B900B837B70CB60C46
:101C7C00B50CB90B3B2E3508BA003A082000D5003C
:101C8C002100B301B40108002100A3002308860041
:101C9C0087010108203A031D5A2E01302000BF0095
:101CAC003F082100A3074C2E23088600870101085A
:101CBC00093A0319532EA101A201A00123088600A1
:101CCC00870101082D3A031D722E01302000BF0040
:101CDC003F082100A007792E230886008701010800
:101CEC002B3A031D7F2E01302000BF003F0821003E
:101CFC00A30723088600870101088931BF218E3193
:101D0C00031CAF2E210022082000B801B8072100C7
:101D1C0021082000B701B7070A30B9000030BA001B
:101D2C008A3103228E3121002308860087010108A5
:101D3C0020003707BF0038080318380AC0003F08D6
:101D4C00D03E2100A100FF302000403D2100A20028
:101D5C00792E210020080319C22E21092000BF0072
:101D6C00210022092000C000BF0A0319C00A3F0845
:101D7C00BD004008BE000800210022082000BE0162
:101D8C00BE07210021082000BD01BD07080021006D
:101D9C00A600A701A80189319E218E312000C00028
:101DAC0040082100A90029088931B2218E31200078
:101DBC00C00040082100A9002908083A0319EA2E9E
:101DCC0029087F3A031D072F2808803A2000C000FD
:101DDC0080304002031DF52E013021002702031C28
:101DEC00D12E7C1D012F77302000BD008430BE0029
:101DFC008B3137238E31FF302100A707FF30A83DF0
:101E0C00D12E29080A3A0319D12E29080D3A031D9F
:101E1C001A2F7C1D522FA4302000BD008330BE0031
:101E2C008B3137238E31522F210029082000C0001E
:101E3C002100270826072000C100410886008701E1
:101E4C004008810001302100A7070030A83D7C1D0F
:101E5C00332F29088931AA218E3121002408FF3E15
:101E6C002000C000FF302100253D2000C1002100D2
:101E7C002808803A2000C2004108803A4202031D23
:101E8C004A2F400821002702031CD12EFF302100CD
:101E9C00A400FF30A5000800210027082607200019
:101EAC00C00040088600870181012100A401A50122
:101EBC0008002100BC0028088600870181018130C0
:101ECC00A3008430A4003C088D316E258F31210095
:101EDC00AA002A08BF00BF08031D792FFF30A800F5
:101EEC00FF30A90008003F08AA002A082000B7000C
:101EFC00B0308931CE218F318B302100A30084305A
:101F0C00A40000308D316E258F312100AA002A08E3
:101F1C00BF003F0803199D2F3F08AA002A08200084
:101F2C00B700210028088931CE218F31A22F210042
:101F3C00280886008701810108302100BA00003092
:101F4C00BB00BD01BE013E08803AAA003B08803AA6
:101F5C002A02031DB32F3A083D020318FA2F210061
:101F6C003E0885003D0884008435850D8435850D3B
:101F7C00203084078330853D003F2000B700013FAF
:101F8C00B800B0308A3143228F3120003808370432
:101F9C00031DF42F21003E08AB003D08AA00AA3512
:101FAC00AB0DAA35AB0D2A08023EAC0000302B3D20
:101FBC00AD002030AE008330AF002C082E07860019
:101FCC002D082F3D870028080A3E84008501403FDC
:101FDC00803F413F813FA801A90108000130210049
:101FEC00BD070030BE3DA92FFE302100A800FF30F8
:041FFC00A900080030
:020000040001F9
:04000E0084CFFFFCA0
:00000001FF
