:040000008231AF2A70
:100008007E14803120007F08A7000B1DAB2A0B113E
:100018005818B528FD107D1C1328FD147D102000EC
:100028000E1A7D14FD117D19FD157D1120008E1A03
:100038007D157D18FD1823287D1D342839287D1C41
:10004800FD1C29287D19342839287D19FD192F28E8
:100058007D1C392834287D1DFD1D3E287D18392832
:1000680001302000CB0700303D28FF302000CB07AF
:10007800FF30CC3D2000CC1F4328CB01CC014C08DD
:10008800803AA00080302002031D4C2880304B02AB
:10009800031C53287F302000CB000030CC00200008
:1000A800B401083034020318BC283408A000A101A8
:1000B800A035A10D4430200784008330213D850000
:1000C800003FA200013FA3004C082302031D6E2835
:1000D8004B082202031CB02834085E3E840083309B
:1000E8000318013E85000008A0004B08F0004C08EA
:1000F800F100890D893B8909F200F3003408A10059
:10010800A201A135A20DA135A20D2430210784003A
:100118008330223D8500003FF400013FF500023F97
:10012800F600033FF70089319021803170082000E4
:10013800A3007108A4007208A5007308A600103077
:10014800A636A50CA40CA30C890BA4282308200709
:10015800B500B601B60DBC280130A0002008B407D0
:1001680055285508A000A1012008B5002108B600AF
:1001780001303602013003193502031CC72800304C
:10018800B5000130B6000130CD070030CE3D4E0835
:10019800803AA00082302002031DD42801304D028D
:1001A800031CD9282000CD01CE0120003608A1006B
:1001B8003508A000A035A10D21084E02031DE62830
:1001C80020084D020318EA280D12EB280D165008D6
:1001D8004F04031DF328520851040319F528B501EB
:1001E800B60133083602031DFB2832083502031C0A
:1001F8001E293208143EA0000030333DA10021081A
:100208003602031D092920083502031C1029143061
:10021800B2070030B33D24293208143EA000003054
:10022800333DA10021083602031D1C292008350290
:10023800031824293608B301B3073508B201B207F9
:100248003209A0003309A100A00A0319A10A200855
:10025800003EAE000130213DAF002F08A1002E085E
:10026800A000A136A00CA136A00C200825009800FB
:1002780020002E080339A0000430A035890B41293D
:1002880025001A08CF392000200425009A000330E1
:1002980021009D009D184E2903309D009D1852296C
:1002A8001B082000A0000630A036890B582920081A
:1002B800A100A20121001C082000A300A401A3356D
:1002C800A40DA335A40D21082307A5002208243D69
:1002D800A6002508B0002608B1003008C307310879
:1002E800C43D0030C53DC63D073021009D009D1826
:1002F8007B2907309D009D187F291B082000A0003E
:100308000630A036890B85292008A100A20121000A
:100318001C082000A300A401A335A40DA335A40D37
:1003280021082307A5002208243DA6002508B000BF
:100338002608B1003008C7073108C83D0030C93D5C
:10034800CA3D0130A0002008D707D708031D002A9E
:100358004308A0004408A1004508A2004608A300DD
:100368000830A336A20CA10CA00C890BB5290030CB
:100378002302031DC92900302202031DC9290130A7
:100388002102031DC929AF3020020318CD297C168C
:10039800CE297C124708A0004808A1004908A200FD
:1003A8004A08A3000830A336A20CA10CA00C890BA4
:1003B800D72900302302031DEB2900302202031D38
:1003C800EB2901302102031DEB29AF30200203186D
:1003D800EF29FC16F029FC120030CA000030C900D1
:1003E8000030C8000030C7004A08C6004908C500E8
:1003F8004808C4004708C3008C1D072A0030CF00F6
:100408000230D0000F2A50084F0403190F2A013078
:10041800CF020030D03B0C1E162A0030D10002302B
:10042800D2001E2A5208510403191E2A0130D10293
:100438000030D23B003054026430031953020318D1
:100448002A2A0130D3070030D43D2C2AD301D40105
:100458007C1A312A20008D14332A20008D10FC1AB2
:10046800382A20008D153A2A20008D1150084F0493
:10047800031D412A20000D14432A20000D105208A4
:100488005104031D4A2A20000D154C2A20000D1185
:10049800581C7C2A8D12A801A80AFC1D5C2AFC1D88
:1004A8005B2A003054021430031953020318A801C0
:1004B8002808031D0E1503190E11A90150084F0431
:1004C80003197C1A6B2A7C1C6B2AA901A90A290822
:1004D800031D0E1403190E10AA0152085104031922
:1004E800FC1A7A2AFC1C7A2AAA01AA0A2A08A72A2C
:1004F8008D16AB01AB0A0C1B8A2A0C1B892A00300B
:1005080054021430031953020318AB012B08031DBE
:100518000E1503190E11AC0150084F0403197C1A6B
:10052800972AAC01AC0A2C08031D0E1403190E10EF
:10053800AD01520851040319FC1AA62A8C1AA62ADE
:10054800AD01AD0A2D08031D8E1503198E1127085C
:10055800FF007E1009008231B12AFC01D801433026
:1005680084000030850015308831F1207E1020008D
:100578008631192E210033082000B7000030B8005A
:1005880089316E218231200038083704031DD22AB0
:10059800FF302100B300FF30B40008002100330809
:1005A8008D316F25823120003E082100B701B70741
:1005B80020003D082100B601B607B71BEE2A370810
:1005C800803AB50080303502031DEC2A023036022D
:1005D800031CF42AFE302100B300FF30B4000800E9
:1005E80021003618FA2A20008C17FC2A20008C13C8
:1005F8002100B301B4010800823484340E340B3472
:100608009334843406340C346B3484344C340B34D3
:10061800713484348A340B3477348434C8340B34DA
:1006280097348434F4340C344C348434BE34023477
:10063800453484349D3404343E34843430340734AF
:10064800D834AD340534003434345A3402340034E8
:100658001634CE34013400348E34853401340034F9
:1006680035345734013400344834363401340034D6
:1006780055341D34013400341F340A340134003435
:100688001034003420340034303400344034003422
:100698005034003460340034703400347F34003413
:1006A800013400340A34003464340034E834033448
:1006B80010342734003435344734543460346A34C1
:1006C80074347C34453452345234343420346334F2
:1006D8006F346D346D3461346E34643420346C346A
:1006E80069346E3465342034623475346634663463
:1006F8006534723420346F34763465347234663439
:100708006C346F3477340D340A3400340D34533478
:100718004134573420344E346534623475346C3483
:1007280069347A346534723420345234463420348F
:1007380044347234693476346534723420342D3458
:10074800203431342E3430340D340A3400344534F6
:1007580052345234333420346234613464342034B3
:1007680070346134723461346D3465347434653492
:1007780072342034763461346C34753465340D3415
:100788000A3400344534523452343234203470340C
:100798006134723461346D34653474346534723460
:1007A80020346D3469347334733469346E34673487
:1007B8000D340A3400344534523452343134203440
:1007C800623461346434203463346F346D346D348E
:1007D80061346E346434203476346534723462346F
:1007E8000D340A34003446344C3431343D34253425
:1007F80064342034003445344E3431343D342534A7
:100808006434203400344F34543431343D34253486
:1008180064342034003446344C3432343D34253486
:1008280064342034003445344E3432343D34253475
:10083800643420340034503455344C343D34253439
:10084800643420340034523445344D343D34253436
:100858006434203400345034573452343D34253411
:100868006434203400344F34543432343D34253425
:10087800643400346534723472346F3472347334CF
:10088800003473347434613474347534733400341C
:10089800743474346C346F347534743400344534BF
:1008A8005234523431340D340034453452345234D5
:1008B80032340D34003445345234523433340D3428
:1008C800003445345234523434340D3400346534F1
:1008D8006E34613462343134003465346E346134DA
:1008E800623432340034703475346C3473346534A3
:1008F800003445345234523420340034653463347F
:1009080068346F34003408342034083400344F34E9
:100918004B340D3400344F344B34203400347234AB
:1009280065346D34003470347734723400347E3476
:1009380000348F302000BD008430BE008A315C2234
:10094800843127302100A2008430A3000310200046
:10095800581803140030093D2100B500B6013508C8
:10096800A4003608A500BA308F3125278431BA3063
:100978002000BD000030BE008A315C228431FF3087
:100988002100A2008330A30003107C180314003058
:10099800093DB500B6013508A4003608A500BA30EF
:1009A8008F3125278431BA302000BD000030BE00C9
:1009B8008A315C22843117302100A2008430A300E0
:1009C8000310FC1803140030093DB500B6013508C2
:1009D800A4003608A500BA308F3125278431BA30F3
:1009E8002000BD000030BE008A315C2284311F30F7
:1009F8002100A2008430A3000310FC190314003066
:100A0800093DB500B6013508A4003608A500BA307E
:100A18008F3125278431BA302000BD000030BE0058
:100A28008A315C228431200055082100B500B601C6
:100A3800B701B80138082000BA00210037082000A3
:100A4800B900210036082000B80021003508200030
:100A5800B7000030BE000030BD006430BC00643018
:100A6800BB008931BF2184310030200037072100C5
:100A7800C40080302000383D2100C500003020002F
:100A8800393D2100C600003020003A3D2100C70052
:100A98004408B5004508B6004608B7004708B8003E
:100AA8001030B900B837B70CB60CB50CB90B562DC9
:100AB8003808C7003708C6003608C5003508C4001E
:100AC8002F30A2008430A3004508A501A5074408DB
:100AD800A401A407BA308F3125278431BA30200009
:100AE800BD000030BE008A315C228431F73021001D
:100AF800A2008330A300031020000D180314003057
:100B0800093D2100B500B601B509B6090130350522
:100B1800A40000303605A500BA308F31252784316E
:100B2800BA302000BD000030BE008A315C2284311A
:100B38000F302100A2008430A300031020000D19FB
:100B480003140030093D2100B500B601B509B60906
:100B580001303505A40000303605A500BA308F31C4
:100B680025278431BA302000BD000030BE008A310C
:100B78005C22843107302100A2008430A3000310D6
:100B880020008D1803140030093D2100B500B6017E
:100B9800B509B60901303505A40000303605A500B1
:100BA800BA308F3125278431BA302000BD0000309B
:100BB800BE008A315C22843137302100A2008430A3
:100BC800A300031020008D1903140030093D2100F3
:100BD800B500B601B509B60901303505A4000030E5
:100BE8003605A500BA308F3125278431BA30200068
:100BF800BD000030BE008A315C22843157302000AD
:100C0800BD008430BE008A315C2284317C1D132EE5
:100C1800A9302000BD008330BE008A315C22FD303F
:100C28002100B300FF30B40008008C31472486311E
:100C380000302100DE000030DD000030DC00003034
:100C4800DB005E08803ACC000030803A4C02031D7D
:100C5800372E00305D02031D372E27305C02031D3E
:100C6800372E10305B020318872E5E082000BA006A
:100C780021005D082000B90021005C082000B800B0
:100C880021005B082000B70021005E082000BE009C
:100C980021005D082000BD0021005C082000BC0088
:100CA80021005B082000BB008931BF21863120006C
:100CB8003A082100D000200039082100CF00200088
:100CC80038082100CE00200037082100CD0001306F
:100CD800DB070030DC3D0030DD3D0030DE3D5E08E6
:100CE800803ACC000030803A4C02031D852E00303B
:100CF8005D02031D852E27305C02031D852E1030F2
:100D08005B02031C392E8A302000BD008330BD2EC3
:100D18007C19932E65302000BD008430BD2E6630CE
:100D28002000BD008330BD2E8B30232F7C19A12ECF
:100D380053302000BD008430BD2EDF302000BD00C0
:100D48008330BD2E7C19AD2E59302000BD00843073
:100D5800BD2EC6302000BD008330BD2E7C19B92EB3
:100D68005F302000BD008430BD2EAB302000BD00B8
:100D78008330BE008A315C2286310A302100A4000B
:100D88000030A500D1308D31F225863121002508AB
:100D9800E001E0072408DF01DF0760085F04031DA6
:100DA8008C2ED1302000B7000030B80089316E2178
:100DB80086312000380837040319982EE1302100C5
:100DC800CC004C08A800D1308E3184268631210011
:100DD8002908E001E0072808DF01DF0760085F0451
:100DE800031D9A2EE1302100CC004C08B3006C089A
:100DF8008A006B080A00863121003408E001E00708
:100E08003308DF01DF07FF306006031D0D2FFF30B9
:100E18005F060319A62EFF3021006006031D162F5A
:100E2800FE305F060319B22EFF3021006006031D55
:100E38001F2FFD305F060319C12E8B302000BD0027
:100E48008430BE008A315C2286317C1DC12EA930D7
:100E58002000BD008330BD2E7D302000BD008430D1
:100E6800BE008A315C228731F7302100A20083302E
:100E7800A300031020000D1803140030093D2100C1
:100E8800B500B601B509B60901303505A400003032
:100E98003605A500B7308F3125278731B7302000B8
:100EA800BD000030BE008A315C2287310F3021003E
:100EB800A2008430A300031020000D190314003091
:100EC800093D2100B500B601B509B609013035055F
:100ED800A40000303605A500B7308F3125278731AB
:100EE800B7302000BD000030BE008A315C22873157
:100EF80007302100A2008430A300031020008D18C1
:100F080003140030093D2100B500B601B509B60942
:100F180001303505A40000303605A500B7308F3103
:100F280025278731B7302000BD000030BE008A3148
:100F38005C22873137302100A2008430A3000310DF
:100F480020008D1903140030093D2100B500B601B9
:100F5800B509B60901303505A40000303605A500ED
:100F6800B7308F3125278731B7302000BD000030DA
:100F7800BE008A315C22873157302000BD008430A2
:100F8800BE008A315C2287317C1DD12FA930200018
:100F9800BD008330BE008A315C22FD302100B300E1
:100FA800FF30B40008002000BB00E22F0130B90078
:100FB8003908BB070130B7070030B83D3B08860049
:100FC800870137088400380885000008FF3A013E89
:100FD8000107B9003908BA00BA08031DF92F3B0800
:100FE800860087018108031DDA2F3A08B700B80187
:060FF800B71BB80308005E
:1011D6002000911EEB2823001908080064008001F6
:1011E6000131890BF22800342000B700111EF928BE
:1011F600370823009A0008002000B7005B3037024A
:1012060003180A2941303702031C0A29B716370882
:1012160008002000B800B7013A303802031819292F
:1012260030303802031C1929B701B70A370C0800F9
:101236002000BA003A08B8003808B9003908860014
:1012460087013708840085010008C03F8908031913
:1012560008000130B8003808B9070130B80038086E
:10126600B7072129200037088400380885000008C0
:101276003906031908003808BC003708BB00B70A4E
:101286000319B80A3B0884003C08850000080038AA
:10129600031D3529B701B80108002000BB01BC01B8
:1012A600371C59293908BB073A08BC3D0130B93506
:1012B600BA0D890B5A290130B836B70C890B5F294C
:1012C60038083704031D53293C08B801B8073B0802
:1012D600B701B707080020003808BC01BC0737086B
:1012E600BB01BB073B0884003C08850000080038AA
:1012F600031982290130BB070030BC3D7529370927
:10130600B9003809BA00B90A0319BA0A3B083907FD
:10131600B7003C083A3DB80008000030FB0000303A
:10132600FA000030F9000030F800701CA229740899
:10133600F8077508F93D7608FA3D7708FB3D013058
:10134600F435F50DF60DF70D890BA3290130F336AB
:10135600F20CF10CF00C890BAA29730872047104C3
:101366007004031D98297B08F3007A08F2007908B7
:10137600F1007808F000080000302000C2000030BC
:10138600C1000030C0000030BF00371CD2293B0826
:10139600BF073C08C03D3D08C13D3E08C23D013087
:1013A600BB35BC0DBD0DBE0D890BD3290130BA3638
:1013B600B90CB80CB70C890BDA293A083904380489
:1013C6003704031DC8294208BA004108B90040087D
:1013D600B8003F08B7000800200040083F04031982
:1013E6001D2A2100A101A10A2000C01B062A0130E6
:1013F6002000BF35C00D890BFC2901302100A0005B
:101406002008A107F729200040084202031D0D2AE3
:101416003F084102031C132A3F08C1024008C23B91
:101426000130C036BF0C890B142A01302100A102FD
:10143600031D062A20004208C001C0074108BF015B
:10144600BF0708002000BD01BE0138083704031994
:10145600552ABC01BC0AB81B3A2A0130B735B80D6B
:10146600890B312A0130BB003B08BC072E2A01300C
:10147600BD35BE0D890B3B2A38083A02031D452AA5
:1014860037083902031C4C2A3708B9023808BA3B18
:101496003D140130B836B70C890B4D2A0130BC0219
:1014A600031D3A2A3E08B801B8073D08B701B70739
:1014B600080020003E08B801B8073D08B701B70785
:1014C60089316E218A31200038082100A101A10747
:1014D600200037082100A001A007A201A3012308CC
:1014E600803A2000BF0021002108803A20003F02F8
:1014F600031D802A2100200822020318080020006C
:101506003D0821002207840020003E082100233DDB
:10151600850000088831F7208A3101302100A207B2
:101526000030A33D722A2100A200A001A101A52A34
:1015360001302000BF003F082100A2070130A007AC
:101546000030A13D2208860087010108003A0319F0
:10155600C72A20003E08B801B8073D08B701B707FB
:10156600210022088600870101082000BF00C00173
:101576003F08B9004008BA00893135218A31200078
:101586003808370403199B2A210021082000BE01D0
:10159600BE07210020082000BD01BD07080021006C
:1015A600A200A001A101E12A01302000BF003F08EE
:1015B6002100A2070130A0070030A13D22088600C5
:1015C60087010108003A0319032B20003E08B801E1
:1015D600B8073D08B701B707210022088600870132
:1015E60001082000BF00C0013F08B9004008BA004A
:1015F600893135218A31200038083704031DD72A5E
:10160600210021082000BE01BE072100200820007D
:10161600BD01BD070800210033082000B7000030D7
:10162600B80089316E218B31200038083704031D3C
:10163600222BFF302100B300FF30B4000800210048
:1016460033088D316F258B3120003E082100B7010C
:10165600B70720003D082100B601B607B71B3E2B91
:101666003708803AB50080303502031D3C2B023026
:101676003602031C442BFE302100B300FF30B400B9
:1016860008007C11210036187C152100B301B40135
:101696000800210033082000B7000030B800893167
:1016A6006E218B31200038083704031D602BFF3074
:1016B6002100B300FF30B4000800210033088D314B
:1016C6006F258B3120003E082100B701B7072000A7
:1016D6003D082100B601B607B71B7C2B3708803AB8
:1016E600B50080303502031D7A2B02303602031C0A
:1016F600822BFE302100B300FF30B40008007C10BE
:10170600210036187C142100B301B4010800210021
:1017160033082000B7000030B80089316E218B31C4
:10172600200038083704031D9E2BFF302100B3002C
:10173600FF30B4000800210033088D316F258B314E
:1017460020003E082100B701B70720003D08210010
:10175600B601B607B71BBA2B3708803AB5008030FA
:101766003502031DB82B02303602031CC02BFE3097
:101776002100B300FF30B4000800FC102100361829
:10178600FC142100B301B401080021003308200035
:10179600B7000030B80089316E218B31200038083F
:1017A6003704031DDC2BFF302100B300FF30B400EB
:1017B6000800210033088D316F258B3120003E084B
:1017C6002100B701B70720003D082100B601B60782
:1017D600B71BF82B3708803AB50080303502031D59
:1017E600F62B02303602031CFE2BFE302100B3001E
:1017F600FF30B4000800FC1121003618FC1521004A
:10180600B301B4010800210033082000B7000030FE
:10181600B80089316E218C31200038083704031D49
:101826001A2CFF302100B300FF30B400080021005D
:1018360033088D316F258C3120003E082100B70119
:10184600B70720003D082100B601B607B71B362CA6
:101856003708803AB50080303502031D342C02303B
:101866003602031C3C2CFE302100B300FF30B400CE
:101876000800200058102100361C432C2000581464
:101886002100B301B4010800F030210099007B303B
:101896008C00C0308D00F0308E00033023008C00A9
:1018A6008D0120000E110E108E118E100D148D1448
:1018B6000D158D150D168D168C17603021009E00A6
:1018C60001309D00043095000C3025009A009E01E1
:1018D6003F3020009B0004309C0025009801230027
:1018E6009F151E1540309B0003309C001E129D174D
:1018F6001D169E167D1020000E1A7D14FD107D18F3
:10190600FD147D1120008E1A7D15FD117D19FD1522
:101916002000CB01CC01CD01CE018B168B17080020
:101926002000C100C108031D9E2C56082100A500F9
:1019360025082000C100C108031DA32C00300800A3
:10194600210024082000BE01BE0721002308200034
:10195600BD01BD0741088A31D2228C3120003D08E5
:101966002100A50025082000C1074108860087013F
:101976008108031DC12C0030D60008002100240870
:101986002000BE01BE07210023082000BD01BD07BF
:1019960041088A3196228C3120003D082100A5009D
:1019A60020003E082100A60020004108210025074E
:1019B600A70027082000D6005608860087010108E0
:1019C600003A0319F12C560886008701810101307F
:1019D6002100A50025082000D607F22CD6014108D3
:1019E6000800210033082000B7000030B800893114
:1019F6006E218C31200038083704031D082DFF3076
:101A06002100B300FF30B4000800210033088D31F7
:101A16006F258C3120003E082100C001C007200040
:101A26003D082100BF01BF07C01B242D4008803A96
:101A3600B50080303502031D222D65303F02031CA0
:101A46002A2DFE302100B300FF30B400080021002B
:101A56003F082000B700210040082000B800890D8B
:101A6600893B8909B900BA000030BE000230BD00CA
:101A76008C30BC00CC30BB008931BF218C310030AA
:101A8600200037072100BB0080302000383D2100B0
:101A9600BC0000302000393D2100BD000030200090
:101AA6003A3D2100BE003B08B5003C08B6003D08A3
:101AB600B7003E08B8001030B900B837B70CB60CFE
:101AC600B50CB90B602D3508BA003A082000D500D0
:101AD6002100B301B40108002100A30023088600F9
:101AE60087010108203A031D7F2D01302000BF0029
:101AF6003F082100A307712D2308860087010108EE
:101B0600093A0319782DA101A201A0012308860034
:101B1600870101082D3A031D972D01302000BF00D3
:101B26003F082100A0079E2D230886008701010893
:101B36002B3A031DA42D01302000BF003F082100D1
:101B4600A307230886008701010889310C218D31FE
:101B5600031CD42D210022082000B801B80721005B
:101B660021082000B701B7070A30B9000030BA00D3
:101B7600893150218D312100230886008701010813
:101B860020003707BF0038080318380AC0003F088E
:101B9600D03E2100A100FF302000403D2100A200E0
:101BA6009E2D210020080319E72D21092000BF00E2
:101BB600210022092000C000BF0A0319C00A3F08FD
:101BC600BD004008BE000800210022082000BE011A
:101BD600BE07210021082000BD01BD070800210025
:101BE600A600A701A8018831EB208D312000C00096
:101BF60040082100A90029088831FF208D312000E6
:101C0600C00040082100A9002908083A03190F2E30
:101C160029087F3A031D2C2E2808803A2000C00090
:101C260080304002031D1A2E013021002702031CBA
:101C3600F62D7C1D262E87302000BD008430BE0088
:101C46008A315C228D31FF302100A707FF30A83D85
:101C5600F62D29080A3A0319F62D29080D3A031D0F
:101C66003F2E7C1D772EA8302000BD008330BE009D
:101C76008A315C228D31772E210029082000C00090
:101C86002100270826072000C10041088600870199
:101C96004008810001302100A7070030A83D7C1DC7
:101CA600582E29088831F7208D3121002408FF3E5F
:101CB6002000C000FF302100253D2000C10021008A
:101CC6002808803A2000C2004108803A4202031DDB
:101CD6006F2E400821002702031CF62DFF3021003D
:101CE600A400FF30A50008002100270826072000D1
:101CF600C00040088600870181012100A401A501DA
:101D060008002100BC002808860087018101913067
:101D1600A3008430A4003C088C3193248E3121002A
:101D2600AA002A08BF00BF08031D9E2EFF30A80088
:101D3600FF30A90008003F08AA002A082000B700C3
:101D4600B03089311B218E319B302100A3008430B5
:101D5600A40000308C3193248E312100AA002A0879
:101D6600BF003F080319C22E3F08AA002A08200018
:101D7600B7002100280889311B218E31C72E21008A
:101D8600280886008701810109302100BA00003049
:101D9600BB00BD01BE013E08803AAA003B08803A5E
:101DA6002A02031DD82E3A083D0203181F2F2100D0
:101DB6003E0885003D0884008435850D8435850DF3
:101DC600003084078330853D003F2000B700013F87
:101DD600B800B0308731D7278E3120003808370455
:101DE600031D192F21003E08AB003D08AA00AA35A5
:101DF600AB0DAA35AB0D2A08023EAC0000302B3DD8
:101E0600AD000030AE008330AF002C082E078600F0
:101E16002D082F3D870028080A3E84008501403F93
:101E2600803F413F813FA801A90108000130210000
:101E3600BD070030BE3DCE2EFE302100A800FF308B
:101E4600A90008002100B200A430A6002608AA00B6
:101E56002308A7002208A600A20A0319A30A260837
:101E66008400270885000008A8002808B100B108EA
:101E76000319FB2F3108253A03194D2F3108A60007
:101E8600320886008701260881000130A600260850
:101E9600B2072B2FAB012308A7002208A600A20A2F
:101EA6000319A30A26088400270885000008B10044
:101EB600003A0319FB2F643A0319652F0D3A0319EB
:101EC600652F2B2F2A0886008701403FAD00413F32
:101ED600AE000230A6002608AA07AE1F7B2F0330ED
:101EE600A6002608AB04AD09AE09AD0A0319AE0A71
:101EF600B101B10A3108053A0319A02F3108A6002D
:101F0600A701A635A70D5430260784008330273D48
:101F16008500003FA800013FA90029082E02031DE5
:101F2600962F28082D02031CA02F0130A600260894
:101F3600B1073108053A031D812F2B080339031910
:101F4600AF2F2D30A60032088600870126088100B3
:101F56000130A6002608B2073108A6002608AC0004
:101F6600FF30A6002608AC072C08FF3A03192B2FD2
:101F76000A302000BF000030C00021002C08A60057
:101F8600A701A635A70D5430260784008330273DC8
:101F96008500003F2000B700013FB80021002E0851
:101FA6002000BA01BA0721002D082000B901B9079F
:101FB6008A3125228F3120003808C201C20737082E
:101FC600C101C1078931EF218F3120003F08303E22
:101FD6002100A8002808B1003108A60032088600B2
:101FE6008701260881000130A6002608B207B32F14
:0A1FF600320886008701810108000F
:020000040001F9
:04000E0084CFFFFCA0
:00000001FF
